{
  "_format": "hh-sol-artifact-1",
  "contractName": "Dex",
  "sourceName": "contracts/Dex.sol",
  "abi": [
    {
      "inputs": [],
      "stateMutability": "nonpayable",
      "type": "constructor"
    },
    {
      "anonymous": false,
      "inputs": [
        {
          "indexed": false,
          "internalType": "uint256",
          "name": "tradeId",
          "type": "uint256"
        },
        {
          "indexed": false,
          "internalType": "uint256",
          "name": "orderId",
          "type": "uint256"
        },
        {
          "indexed": true,
          "internalType": "bytes32",
          "name": "ticker",
          "type": "bytes32"
        },
        {
          "indexed": true,
          "internalType": "address",
          "name": "trader1",
          "type": "address"
        },
        {
          "indexed": true,
          "internalType": "address",
          "name": "trader2",
          "type": "address"
        },
        {
          "indexed": false,
          "internalType": "uint256",
          "name": "amount",
          "type": "uint256"
        },
        {
          "indexed": false,
          "internalType": "uint256",
          "name": "price",
          "type": "uint256"
        },
        {
          "indexed": false,
          "internalType": "uint256",
          "name": "date",
          "type": "uint256"
        }
      ],
      "name": "NewTrade",
      "type": "event"
    },
    {
      "inputs": [
        {
          "internalType": "bytes32",
          "name": "ticker",
          "type": "bytes32"
        },
        {
          "internalType": "address",
          "name": "tokenAddress",
          "type": "address"
        }
      ],
      "name": "addToken",
      "outputs": [],
      "stateMutability": "nonpayable",
      "type": "function"
    },
    {
      "inputs": [],
      "name": "admin",
      "outputs": [
        {
          "internalType": "address",
          "name": "",
          "type": "address"
        }
      ],
      "stateMutability": "view",
      "type": "function"
    },
    {
      "inputs": [
        {
          "internalType": "bytes32",
          "name": "ticker",
          "type": "bytes32"
        },
        {
          "internalType": "uint256",
          "name": "amount",
          "type": "uint256"
        },
        {
          "internalType": "uint256",
          "name": "price",
          "type": "uint256"
        },
        {
          "internalType": "enum Dex.Side",
          "name": "side",
          "type": "uint8"
        }
      ],
      "name": "createLimitOrder",
      "outputs": [],
      "stateMutability": "nonpayable",
      "type": "function"
    },
    {
      "inputs": [
        {
          "internalType": "bytes32",
          "name": "ticker",
          "type": "bytes32"
        },
        {
          "internalType": "uint256",
          "name": "amount",
          "type": "uint256"
        },
        {
          "internalType": "enum Dex.Side",
          "name": "side",
          "type": "uint8"
        }
      ],
      "name": "createMarketOrder",
      "outputs": [],
      "stateMutability": "nonpayable",
      "type": "function"
    },
    {
      "inputs": [
        {
          "internalType": "uint256",
          "name": "amount",
          "type": "uint256"
        },
        {
          "internalType": "bytes32",
          "name": "ticker",
          "type": "bytes32"
        }
      ],
      "name": "deposit",
      "outputs": [],
      "stateMutability": "nonpayable",
      "type": "function"
    },
    {
      "inputs": [
        {
          "internalType": "bytes32",
          "name": "ticker",
          "type": "bytes32"
        },
        {
          "internalType": "enum Dex.Side",
          "name": "side",
          "type": "uint8"
        }
      ],
      "name": "getOrders",
      "outputs": [
        {
          "components": [
            {
              "internalType": "uint256",
              "name": "id",
              "type": "uint256"
            },
            {
              "internalType": "address",
              "name": "trader",
              "type": "address"
            },
            {
              "internalType": "enum Dex.Side",
              "name": "side",
              "type": "uint8"
            },
            {
              "internalType": "bytes32",
              "name": "ticker",
              "type": "bytes32"
            },
            {
              "internalType": "uint256",
              "name": "amount",
              "type": "uint256"
            },
            {
              "internalType": "uint256",
              "name": "filled",
              "type": "uint256"
            },
            {
              "internalType": "uint256",
              "name": "price",
              "type": "uint256"
            },
            {
              "internalType": "uint256",
              "name": "date",
              "type": "uint256"
            }
          ],
          "internalType": "struct Dex.Order[]",
          "name": "",
          "type": "tuple[]"
        }
      ],
      "stateMutability": "view",
      "type": "function"
    },
    {
      "inputs": [
        {
          "internalType": "bytes32",
          "name": "ticker",
          "type": "bytes32"
        }
      ],
      "name": "getRecentTrades",
      "outputs": [
        {
          "components": [
            {
              "internalType": "uint256",
              "name": "tradeId",
              "type": "uint256"
            },
            {
              "internalType": "uint256",
              "name": "orderId",
              "type": "uint256"
            },
            {
              "internalType": "bytes32",
              "name": "ticker",
              "type": "bytes32"
            },
            {
              "internalType": "address",
              "name": "trader1",
              "type": "address"
            },
            {
              "internalType": "address",
              "name": "trader2",
              "type": "address"
            },
            {
              "internalType": "uint256",
              "name": "amount",
              "type": "uint256"
            },
            {
              "internalType": "uint256",
              "name": "price",
              "type": "uint256"
            },
            {
              "internalType": "uint256",
              "name": "date",
              "type": "uint256"
            }
          ],
          "internalType": "struct Dex.Trade[]",
          "name": "",
          "type": "tuple[]"
        }
      ],
      "stateMutability": "view",
      "type": "function"
    },
    {
      "inputs": [],
      "name": "getTokens",
      "outputs": [
        {
          "components": [
            {
              "internalType": "bytes32",
              "name": "ticker",
              "type": "bytes32"
            },
            {
              "internalType": "address",
              "name": "tokenAddress",
              "type": "address"
            }
          ],
          "internalType": "struct Dex.Token[]",
          "name": "",
          "type": "tuple[]"
        }
      ],
      "stateMutability": "view",
      "type": "function"
    },
    {
      "inputs": [],
      "name": "nextOrderId",
      "outputs": [
        {
          "internalType": "uint256",
          "name": "",
          "type": "uint256"
        }
      ],
      "stateMutability": "view",
      "type": "function"
    },
    {
      "inputs": [],
      "name": "nextTradeId",
      "outputs": [
        {
          "internalType": "uint256",
          "name": "",
          "type": "uint256"
        }
      ],
      "stateMutability": "view",
      "type": "function"
    },
    {
      "inputs": [
        {
          "internalType": "bytes32",
          "name": "",
          "type": "bytes32"
        },
        {
          "internalType": "uint256",
          "name": "",
          "type": "uint256"
        },
        {
          "internalType": "uint256",
          "name": "",
          "type": "uint256"
        }
      ],
      "name": "orderBook",
      "outputs": [
        {
          "internalType": "uint256",
          "name": "id",
          "type": "uint256"
        },
        {
          "internalType": "address",
          "name": "trader",
          "type": "address"
        },
        {
          "internalType": "enum Dex.Side",
          "name": "side",
          "type": "uint8"
        },
        {
          "internalType": "bytes32",
          "name": "ticker",
          "type": "bytes32"
        },
        {
          "internalType": "uint256",
          "name": "amount",
          "type": "uint256"
        },
        {
          "internalType": "uint256",
          "name": "filled",
          "type": "uint256"
        },
        {
          "internalType": "uint256",
          "name": "price",
          "type": "uint256"
        },
        {
          "internalType": "uint256",
          "name": "date",
          "type": "uint256"
        }
      ],
      "stateMutability": "view",
      "type": "function"
    },
    {
      "inputs": [
        {
          "internalType": "uint256",
          "name": "",
          "type": "uint256"
        }
      ],
      "name": "tokenList",
      "outputs": [
        {
          "internalType": "bytes32",
          "name": "",
          "type": "bytes32"
        }
      ],
      "stateMutability": "view",
      "type": "function"
    },
    {
      "inputs": [
        {
          "internalType": "bytes32",
          "name": "",
          "type": "bytes32"
        }
      ],
      "name": "tokens",
      "outputs": [
        {
          "internalType": "bytes32",
          "name": "ticker",
          "type": "bytes32"
        },
        {
          "internalType": "address",
          "name": "tokenAddress",
          "type": "address"
        }
      ],
      "stateMutability": "view",
      "type": "function"
    },
    {
      "inputs": [
        {
          "internalType": "address",
          "name": "",
          "type": "address"
        },
        {
          "internalType": "bytes32",
          "name": "",
          "type": "bytes32"
        }
      ],
      "name": "traderBalances",
      "outputs": [
        {
          "internalType": "uint256",
          "name": "",
          "type": "uint256"
        }
      ],
      "stateMutability": "view",
      "type": "function"
    },
    {
      "inputs": [
        {
          "internalType": "uint256",
          "name": "amount",
          "type": "uint256"
        },
        {
          "internalType": "bytes32",
          "name": "ticker",
          "type": "bytes32"
        }
      ],
      "name": "withdraw",
      "outputs": [],
      "stateMutability": "nonpayable",
      "type": "function"
    }
  ],
  "bytecode": "0x608060405234801561001057600080fd5b5033600460006101000a81548173ffffffffffffffffffffffffffffffffffffffff021916908373ffffffffffffffffffffffffffffffffffffffff1602179055506145fb806100616000396000f3fe608060405234801561001057600080fd5b50600436106100f55760003560e01c8063904194a311610097578063aa6ca80811610066578063aa6ca808146102b2578063c9630cb0146102d0578063d9c0c950146102ec578063f851a44014610308576100f5565b8063904194a3146102195780639776aacf1461024a5780639ead722214610266578063a8d2021a14610296576100f5565b806346e9658b116100d357806346e9658b1461017f57806372ce957e146101af5780637f2c6246146101df578063813ad083146101fb576100f5565b80630bb431b6146100fa5780632a58b3301461013157806342e1ca3c1461014f575b600080fd5b610114600480360381019061010f91906138f2565b610326565b60405161012898979695949392919061406d565b60405180910390f35b6101396103c5565b6040516101469190614052565b60405180910390f35b61016960048036038101906101649190613802565b6103cb565b6040516101769190613f0c565b60405180910390f35b61019960048036038101906101949190613867565b610526565b6040516101a69190613ec8565b60405180910390f35b6101c960048036038101906101c4919061379d565b6106fc565b6040516101d69190614052565b60405180910390f35b6101f960048036038101906101f491906138a3565b610721565b005b610203611dbc565b6040516102109190614052565b60405180910390f35b610233600480360381019061022e9190613802565b611dc2565b604051610241929190613f49565b60405180910390f35b610264600480360381019061025f919061382b565b611e06565b005b610280600480360381019061027b91906139a4565b611f54565b60405161028d9190613f2e565b60405180910390f35b6102b060048036038101906102ab91906139cd565b611f78565b005b6102ba612229565b6040516102c79190613eea565b60405180910390f35b6102ea60048036038101906102e591906139cd565b61241a565b005b61030660048036038101906103019190613941565b61263a565b005b610310613242565b60405161031d9190613e4d565b60405180910390f35b6003602052826000526040600020602052816000526040600020818154811061034e57600080fd5b906000526020600020906007020160009250925050508060000154908060010160009054906101000a900473ffffffffffffffffffffffffffffffffffffffff16908060010160149054906101000a900460ff16908060020154908060030154908060040154908060050154908060060154905088565b60055481565b606060076000838152602001908152602001600020805480602002602001604051908101604052809291908181526020016000905b8282101561051b5783829060005260206000209060080201604051806101000160405290816000820154815260200160018201548152602001600282015481526020016003820160009054906101000a900473ffffffffffffffffffffffffffffffffffffffff1673ffffffffffffffffffffffffffffffffffffffff1673ffffffffffffffffffffffffffffffffffffffff1681526020016004820160009054906101000a900473ffffffffffffffffffffffffffffffffffffffff1673ffffffffffffffffffffffffffffffffffffffff1673ffffffffffffffffffffffffffffffffffffffff168152602001600582015481526020016006820154815260200160078201548152505081526020019060010190610400565b505050509050919050565b6060600360008481526020019081526020016000206000836001811115610576577f4e487b7100000000000000000000000000000000000000000000000000000000600052602160045260246000fd5b8152602001908152602001600020805480602002602001604051908101604052809291908181526020016000905b828210156106f0578382906000526020600020906007020160405180610100016040529081600082015481526020016001820160009054906101000a900473ffffffffffffffffffffffffffffffffffffffff1673ffffffffffffffffffffffffffffffffffffffff1673ffffffffffffffffffffffffffffffffffffffff1681526020016001820160149054906101000a900460ff166001811115610673577f4e487b7100000000000000000000000000000000000000000000000000000000600052602160045260246000fd5b60018111156106ab577f4e487b7100000000000000000000000000000000000000000000000000000000600052602160045260246000fd5b815260200160028201548152602001600382015481526020016004820154815260200160058201548152602001600682015481525050815260200190600101906105a4565b50505050905092915050565b6002602052816000526040600020602052806000526040600020600091509150505481565b82600073ffffffffffffffffffffffffffffffffffffffff1660008083815260200190815260200160002060010160009054906101000a900473ffffffffffffffffffffffffffffffffffffffff1673ffffffffffffffffffffffffffffffffffffffff1614156107c7576040517f08c379a00000000000000000000000000000000000000000000000000000000081526004016107be90614032565b60405180910390fd5b837f444149000000000000000000000000000000000000000000000000000000000081141561082b576040517f08c379a000000000000000000000000000000000000000000000000000000000815260040161082290613fd2565b60405180910390fd5b600180811115610864577f4e487b7100000000000000000000000000000000000000000000000000000000600052602160045260246000fd5b83600181111561089d577f4e487b7100000000000000000000000000000000000000000000000000000000600052602160045260246000fd5b14156109375783600260003373ffffffffffffffffffffffffffffffffffffffff1673ffffffffffffffffffffffffffffffffffffffff1681526020019081526020016000206000878152602001908152602001600020541015610936576040517f08c379a000000000000000000000000000000000000000000000000000000000815260040161092d90613ff2565b60405180910390fd5b5b6000600360008781526020019081526020016000206000806001811115610987577f4e487b7100000000000000000000000000000000000000000000000000000000600052602160045260246000fd5b8660018111156109c0577f4e487b7100000000000000000000000000000000000000000000000000000000600052602160045260246000fd5b146109cc5760006109cf565b60015b6001811115610a07577f4e487b7100000000000000000000000000000000000000000000000000000000600052602160045260246000fd5b815260200190815260200160002090506000808690505b828054905082108015610a315750600081115b15611a5f576000838381548110610a71577f4e487b7100000000000000000000000000000000000000000000000000000000600052603260045260246000fd5b906000526020600020906007020160040154848481548110610abc577f4e487b7100000000000000000000000000000000000000000000000000000000600052603260045260246000fd5b906000526020600020906007020160030154610ad891906142aa565b90506000818311610ae95782610aeb565b815b90508083610af991906142aa565b925080858581548110610b35577f4e487b7100000000000000000000000000000000000000000000000000000000600052603260045260246000fd5b906000526020600020906007020160040154610b5191906141fa565b858581548110610b8a577f4e487b7100000000000000000000000000000000000000000000000000000000600052603260045260246000fd5b90600052602060002090600702016004018190555060006040518061010001604052806006548152602001878781548110610bee577f4e487b7100000000000000000000000000000000000000000000000000000000600052603260045260246000fd5b90600052602060002090600702016000015481526020018c8152602001878781548110610c44577f4e487b7100000000000000000000000000000000000000000000000000000000600052603260045260246000fd5b906000526020600020906007020160010160009054906101000a900473ffffffffffffffffffffffffffffffffffffffff1673ffffffffffffffffffffffffffffffffffffffff1681526020013373ffffffffffffffffffffffffffffffffffffffff168152602001838152602001878781548110610cec577f4e487b7100000000000000000000000000000000000000000000000000000000600052603260045260246000fd5b9060005260206000209060070201600501548152602001428152509050610d1281613268565b600180811115610d4b577f4e487b7100000000000000000000000000000000000000000000000000000000600052602160045260246000fd5b896001811115610d84577f4e487b7100000000000000000000000000000000000000000000000000000000600052602160045260246000fd5b141561131d5781600260003373ffffffffffffffffffffffffffffffffffffffff1673ffffffffffffffffffffffffffffffffffffffff16815260200190815260200160002060008d815260200190815260200160002054610de691906142aa565b600260003373ffffffffffffffffffffffffffffffffffffffff1673ffffffffffffffffffffffffffffffffffffffff16815260200190815260200160002060008d815260200190815260200160002081905550858581548110610e73577f4e487b7100000000000000000000000000000000000000000000000000000000600052603260045260246000fd5b90600052602060002090600702016005015482610e909190614250565b600260003373ffffffffffffffffffffffffffffffffffffffff1673ffffffffffffffffffffffffffffffffffffffff16815260200190815260200160002060007f4441490000000000000000000000000000000000000000000000000000000000815260200190815260200160002054610f0b91906141fa565b600260003373ffffffffffffffffffffffffffffffffffffffff1673ffffffffffffffffffffffffffffffffffffffff16815260200190815260200160002060007f44414900000000000000000000000000000000000000000000000000000000008152602001908152602001600020819055508160026000888881548110610fbd577f4e487b7100000000000000000000000000000000000000000000000000000000600052603260045260246000fd5b906000526020600020906007020160010160009054906101000a900473ffffffffffffffffffffffffffffffffffffffff1673ffffffffffffffffffffffffffffffffffffffff1673ffffffffffffffffffffffffffffffffffffffff16815260200190815260200160002060008d81526020019081526020016000205461104591906141fa565b60026000888881548110611082577f4e487b7100000000000000000000000000000000000000000000000000000000600052603260045260246000fd5b906000526020600020906007020160010160009054906101000a900473ffffffffffffffffffffffffffffffffffffffff1673ffffffffffffffffffffffffffffffffffffffff1673ffffffffffffffffffffffffffffffffffffffff16815260200190815260200160002060008d81526020019081526020016000208190555085858154811061113c577f4e487b7100000000000000000000000000000000000000000000000000000000600052603260045260246000fd5b906000526020600020906007020160050154826111599190614250565b60026000888881548110611196577f4e487b7100000000000000000000000000000000000000000000000000000000600052603260045260246000fd5b906000526020600020906007020160010160009054906101000a900473ffffffffffffffffffffffffffffffffffffffff1673ffffffffffffffffffffffffffffffffffffffff1673ffffffffffffffffffffffffffffffffffffffff16815260200190815260200160002060007f444149000000000000000000000000000000000000000000000000000000000081526020019081526020016000205461123e91906142aa565b6002600088888154811061127b577f4e487b7100000000000000000000000000000000000000000000000000000000600052603260045260246000fd5b906000526020600020906007020160010160009054906101000a900473ffffffffffffffffffffffffffffffffffffffff1673ffffffffffffffffffffffffffffffffffffffff1673ffffffffffffffffffffffffffffffffffffffff16815260200190815260200160002060007f44414900000000000000000000000000000000000000000000000000000000008152602001908152602001600020819055505b60006001811115611357577f4e487b7100000000000000000000000000000000000000000000000000000000600052602160045260246000fd5b896001811115611390577f4e487b7100000000000000000000000000000000000000000000000000000000600052602160045260246000fd5b1415611a31578585815481106113cf577f4e487b7100000000000000000000000000000000000000000000000000000000600052603260045260246000fd5b906000526020600020906007020160050154826113ec9190614250565b600260003373ffffffffffffffffffffffffffffffffffffffff1673ffffffffffffffffffffffffffffffffffffffff16815260200190815260200160002060007f4441490000000000000000000000000000000000000000000000000000000000815260200190815260200160002054101561149e576040517f08c379a000000000000000000000000000000000000000000000000000000000815260040161149590614012565b60405180910390fd5b81600260003373ffffffffffffffffffffffffffffffffffffffff1673ffffffffffffffffffffffffffffffffffffffff16815260200190815260200160002060008d8152602001908152602001600020546114fa91906141fa565b600260003373ffffffffffffffffffffffffffffffffffffffff1673ffffffffffffffffffffffffffffffffffffffff16815260200190815260200160002060008d815260200190815260200160002081905550858581548110611587577f4e487b7100000000000000000000000000000000000000000000000000000000600052603260045260246000fd5b906000526020600020906007020160050154826115a49190614250565b600260003373ffffffffffffffffffffffffffffffffffffffff1673ffffffffffffffffffffffffffffffffffffffff16815260200190815260200160002060007f444149000000000000000000000000000000000000000000000000000000000081526020019081526020016000205461161f91906142aa565b600260003373ffffffffffffffffffffffffffffffffffffffff1673ffffffffffffffffffffffffffffffffffffffff16815260200190815260200160002060007f444149000000000000000000000000000000000000000000000000000000000081526020019081526020016000208190555081600260008888815481106116d1577f4e487b7100000000000000000000000000000000000000000000000000000000600052603260045260246000fd5b906000526020600020906007020160010160009054906101000a900473ffffffffffffffffffffffffffffffffffffffff1673ffffffffffffffffffffffffffffffffffffffff1673ffffffffffffffffffffffffffffffffffffffff16815260200190815260200160002060008d81526020019081526020016000205461175991906142aa565b60026000888881548110611796577f4e487b7100000000000000000000000000000000000000000000000000000000600052603260045260246000fd5b906000526020600020906007020160010160009054906101000a900473ffffffffffffffffffffffffffffffffffffffff1673ffffffffffffffffffffffffffffffffffffffff1673ffffffffffffffffffffffffffffffffffffffff16815260200190815260200160002060008d815260200190815260200160002081905550858581548110611850577f4e487b7100000000000000000000000000000000000000000000000000000000600052603260045260246000fd5b9060005260206000209060070201600501548261186d9190614250565b600260008888815481106118aa577f4e487b7100000000000000000000000000000000000000000000000000000000600052603260045260246000fd5b906000526020600020906007020160010160009054906101000a900473ffffffffffffffffffffffffffffffffffffffff1673ffffffffffffffffffffffffffffffffffffffff1673ffffffffffffffffffffffffffffffffffffffff16815260200190815260200160002060007f444149000000000000000000000000000000000000000000000000000000000081526020019081526020016000205461195291906141fa565b6002600088888154811061198f577f4e487b7100000000000000000000000000000000000000000000000000000000600052603260045260246000fd5b906000526020600020906007020160010160009054906101000a900473ffffffffffffffffffffffffffffffffffffffff1673ffffffffffffffffffffffffffffffffffffffff1673ffffffffffffffffffffffffffffffffffffffff16815260200190815260200160002060007f44414900000000000000000000000000000000000000000000000000000000008152602001908152602001600020819055505b60066000815480929190611a449061437f565b91905055508480611a549061437f565b955050505050610a1e565b600091505b828054905082108015611b0a5750828281548110611aab577f4e487b7100000000000000000000000000000000000000000000000000000000600052603260045260246000fd5b906000526020600020906007020160030154838381548110611af6577f4e487b7100000000000000000000000000000000000000000000000000000000600052603260045260246000fd5b906000526020600020906007020160040154145b15611db25760008290505b60018480549050611b2691906142aa565b811015611ce35783600182611b3b91906141fa565b81548110611b72577f4e487b7100000000000000000000000000000000000000000000000000000000600052603260045260246000fd5b9060005260206000209060070201848281548110611bb9577f4e487b7100000000000000000000000000000000000000000000000000000000600052603260045260246000fd5b9060005260206000209060070201600082015481600001556001820160009054906101000a900473ffffffffffffffffffffffffffffffffffffffff168160010160006101000a81548173ffffffffffffffffffffffffffffffffffffffff021916908373ffffffffffffffffffffffffffffffffffffffff1602179055506001820160149054906101000a900460ff168160010160146101000a81548160ff02191690836001811115611c96577f4e487b7100000000000000000000000000000000000000000000000000000000600052602160045260246000fd5b021790555060028201548160020155600382015481600301556004820154816004015560058201548160050155600682015481600601559050508080611cdb9061437f565b915050611b15565b5082805480611d1b577f4e487b7100000000000000000000000000000000000000000000000000000000600052603160045260246000fd5b60019003818190600052602060002090600702016000808201600090556001820160006101000a81549073ffffffffffffffffffffffffffffffffffffffff02191690556001820160146101000a81549060ff021916905560028201600090556003820160009055600482016000905560058201600090556006820160009055505090558180611daa9061437f565b925050611a64565b5050505050505050565b60065481565b60006020528060005260406000206000915090508060000154908060010160009054906101000a900473ffffffffffffffffffffffffffffffffffffffff16905082565b600460009054906101000a900473ffffffffffffffffffffffffffffffffffffffff1673ffffffffffffffffffffffffffffffffffffffff163373ffffffffffffffffffffffffffffffffffffffff1614611e96576040517f08c379a0000000000000000000000000000000000000000000000000000000008152600401611e8d90613fb2565b60405180910390fd5b60405180604001604052808381526020018273ffffffffffffffffffffffffffffffffffffffff168152506000808481526020019081526020016000206000820151816000015560208201518160010160006101000a81548173ffffffffffffffffffffffffffffffffffffffff021916908373ffffffffffffffffffffffffffffffffffffffff16021790555090505060018290806001815401808255809150506001900390600052602060002001600090919091909150555050565b60018181548110611f6457600080fd5b906000526020600020016000915090505481565b80600073ffffffffffffffffffffffffffffffffffffffff1660008083815260200190815260200160002060010160009054906101000a900473ffffffffffffffffffffffffffffffffffffffff1673ffffffffffffffffffffffffffffffffffffffff16141561201e576040517f08c379a000000000000000000000000000000000000000000000000000000000815260040161201590614032565b60405180910390fd5b82600260003373ffffffffffffffffffffffffffffffffffffffff1673ffffffffffffffffffffffffffffffffffffffff16815260200190815260200160002060008481526020019081526020016000205410156120b1576040517f08c379a00000000000000000000000000000000000000000000000000000000081526004016120a890613f92565b60405180910390fd5b82600260003373ffffffffffffffffffffffffffffffffffffffff1673ffffffffffffffffffffffffffffffffffffffff16815260200190815260200160002060008481526020019081526020016000205461210d91906142aa565b600260003373ffffffffffffffffffffffffffffffffffffffff1673ffffffffffffffffffffffffffffffffffffffff16815260200190815260200160002060008481526020019081526020016000208190555060008083815260200190815260200160002060010160009054906101000a900473ffffffffffffffffffffffffffffffffffffffff1673ffffffffffffffffffffffffffffffffffffffff1663a9059cbb33856040518363ffffffff1660e01b81526004016121d1929190613e9f565b602060405180830381600087803b1580156121eb57600080fd5b505af11580156121ff573d6000803e3d6000fd5b505050506040513d601f19601f8201168201806040525081019061222391906137d9565b50505050565b6060600060018054905067ffffffffffffffff811115612272577f4e487b7100000000000000000000000000000000000000000000000000000000600052604160045260246000fd5b6040519080825280602002602001820160405280156122ab57816020015b612298613701565b8152602001906001900390816122905790505b50905060005b60018054905081101561241257604051806040016040528060008060018581548110612306577f4e487b7100000000000000000000000000000000000000000000000000000000600052603260045260246000fd5b9060005260206000200154815260200190815260200160002060000154815260200160008060018581548110612365577f4e487b7100000000000000000000000000000000000000000000000000000000600052603260045260246000fd5b9060005260206000200154815260200190815260200160002060010160009054906101000a900473ffffffffffffffffffffffffffffffffffffffff1673ffffffffffffffffffffffffffffffffffffffff168152508282815181106123f4577f4e487b7100000000000000000000000000000000000000000000000000000000600052603260045260246000fd5b6020026020010181905250808061240a9061437f565b9150506122b1565b508091505090565b80600073ffffffffffffffffffffffffffffffffffffffff1660008083815260200190815260200160002060010160009054906101000a900473ffffffffffffffffffffffffffffffffffffffff1673ffffffffffffffffffffffffffffffffffffffff1614156124c0576040517f08c379a00000000000000000000000000000000000000000000000000000000081526004016124b790614032565b60405180910390fd5b60008083815260200190815260200160002060010160009054906101000a900473ffffffffffffffffffffffffffffffffffffffff1673ffffffffffffffffffffffffffffffffffffffff166323b872dd3330866040518463ffffffff1660e01b815260040161253293929190613e68565b602060405180830381600087803b15801561254c57600080fd5b505af1158015612560573d6000803e3d6000fd5b505050506040513d601f19601f8201168201806040525081019061258491906137d9565b5082600260003373ffffffffffffffffffffffffffffffffffffffff1673ffffffffffffffffffffffffffffffffffffffff1681526020019081526020016000206000848152602001908152602001600020546125e191906141fa565b600260003373ffffffffffffffffffffffffffffffffffffffff1673ffffffffffffffffffffffffffffffffffffffff168152602001908152602001600020600084815260200190815260200160002081905550505050565b83600073ffffffffffffffffffffffffffffffffffffffff1660008083815260200190815260200160002060010160009054906101000a900473ffffffffffffffffffffffffffffffffffffffff1673ffffffffffffffffffffffffffffffffffffffff1614156126e0576040517f08c379a00000000000000000000000000000000000000000000000000000000081526004016126d790614032565b60405180910390fd5b847f4441490000000000000000000000000000000000000000000000000000000000811415612744576040517f08c379a000000000000000000000000000000000000000000000000000000000815260040161273b90613fd2565b60405180910390fd5b60018081111561277d577f4e487b7100000000000000000000000000000000000000000000000000000000600052602160045260246000fd5b8360018111156127b6577f4e487b7100000000000000000000000000000000000000000000000000000000600052602160045260246000fd5b14156128545784600260003373ffffffffffffffffffffffffffffffffffffffff1673ffffffffffffffffffffffffffffffffffffffff168152602001908152602001600020600088815260200190815260200160002054101561284f576040517f08c379a000000000000000000000000000000000000000000000000000000000815260040161284690613ff2565b60405180910390fd5b612913565b83856128609190614250565b600260003373ffffffffffffffffffffffffffffffffffffffff1673ffffffffffffffffffffffffffffffffffffffff16815260200190815260200160002060007f44414900000000000000000000000000000000000000000000000000000000008152602001908152602001600020541015612912576040517f08c379a000000000000000000000000000000000000000000000000000000000815260040161290990614012565b60405180910390fd5b5b60008511612956576040517f08c379a000000000000000000000000000000000000000000000000000000000815260040161294d90613f72565b60405180910390fd5b60006003600088815260200190815260200160002060008560018111156129a6577f4e487b7100000000000000000000000000000000000000000000000000000000600052602160045260246000fd5b815260200190815260200160002090508060405180610100016040528060055481526020013373ffffffffffffffffffffffffffffffffffffffff168152602001866001811115612a20577f4e487b7100000000000000000000000000000000000000000000000000000000600052602160045260246000fd5b8152602001898152602001888152602001600081526020018781526020014281525090806001815401808255809150506001900390600052602060002090600702016000909190919091506000820151816000015560208201518160010160006101000a81548173ffffffffffffffffffffffffffffffffffffffff021916908373ffffffffffffffffffffffffffffffffffffffff16021790555060408201518160010160146101000a81548160ff02191690836001811115612b0d577f4e487b7100000000000000000000000000000000000000000000000000000000600052602160045260246000fd5b0217905550606082015181600201556080820151816003015560a0820151816004015560c0820151816005015560e082015181600601555050600080828054905011612b5a576000612b6c565b60018280549050612b6b91906142aa565b5b90505b60008111156132205760006001811115612bb2577f4e487b7100000000000000000000000000000000000000000000000000000000600052602160045260246000fd5b856001811115612beb577f4e487b7100000000000000000000000000000000000000000000000000000000600052602160045260246000fd5b148015612c975750818181548110612c2c577f4e487b7100000000000000000000000000000000000000000000000000000000600052603260045260246000fd5b90600052602060002090600702016005015482600183612c4c91906142aa565b81548110612c83577f4e487b7100000000000000000000000000000000000000000000000000000000600052603260045260246000fd5b906000526020600020906007020160050154115b15612ca157613220565b600180811115612cda577f4e487b7100000000000000000000000000000000000000000000000000000000600052602160045260246000fd5b856001811115612d13577f4e487b7100000000000000000000000000000000000000000000000000000000600052602160045260246000fd5b148015612dbf5750818181548110612d54577f4e487b7100000000000000000000000000000000000000000000000000000000600052603260045260246000fd5b90600052602060002090600702016005015482600183612d7491906142aa565b81548110612dab577f4e487b7100000000000000000000000000000000000000000000000000000000600052603260045260246000fd5b906000526020600020906007020160050154105b15612dc957613220565b600082600183612dd991906142aa565b81548110612e10577f4e487b7100000000000000000000000000000000000000000000000000000000600052603260045260246000fd5b906000526020600020906007020160405180610100016040529081600082015481526020016001820160009054906101000a900473ffffffffffffffffffffffffffffffffffffffff1673ffffffffffffffffffffffffffffffffffffffff1673ffffffffffffffffffffffffffffffffffffffff1681526020016001820160149054906101000a900460ff166001811115612ed5577f4e487b7100000000000000000000000000000000000000000000000000000000600052602160045260246000fd5b6001811115612f0d577f4e487b7100000000000000000000000000000000000000000000000000000000600052602160045260246000fd5b8152602001600282015481526020016003820154815260200160048201548152602001600582015481526020016006820154815250509050828281548110612f7e577f4e487b7100000000000000000000000000000000000000000000000000000000600052603260045260246000fd5b906000526020600020906007020183600184612f9a91906142aa565b81548110612fd1577f4e487b7100000000000000000000000000000000000000000000000000000000600052603260045260246000fd5b9060005260206000209060070201600082015481600001556001820160009054906101000a900473ffffffffffffffffffffffffffffffffffffffff168160010160006101000a81548173ffffffffffffffffffffffffffffffffffffffff021916908373ffffffffffffffffffffffffffffffffffffffff1602179055506001820160149054906101000a900460ff168160010160146101000a81548160ff021916908360018111156130ae577f4e487b7100000000000000000000000000000000000000000000000000000000600052602160045260246000fd5b0217905550600282015481600201556003820154816003015560048201548160040155600582015481600501556006820154816006015590505080838381548110613122577f4e487b7100000000000000000000000000000000000000000000000000000000600052603260045260246000fd5b90600052602060002090600702016000820151816000015560208201518160010160006101000a81548173ffffffffffffffffffffffffffffffffffffffff021916908373ffffffffffffffffffffffffffffffffffffffff16021790555060408201518160010160146101000a81548160ff021916908360018111156131d2577f4e487b7100000000000000000000000000000000000000000000000000000000600052602160045260246000fd5b0217905550606082015181600201556080820151816003015560a0820151816004015560c0820151816005015560e08201518160060155905050818061321790614355565b92505050612b6f565b600560008154809291906132339061437f565b91905055505050505050505050565b600460009054906101000a900473ffffffffffffffffffffffffffffffffffffffff1681565b600760008260400151815260200190815260200160002081908060018154018082558091505060019003906000526020600020906008020160009091909190915060008201518160000155602082015181600101556040820151816002015560608201518160030160006101000a81548173ffffffffffffffffffffffffffffffffffffffff021916908373ffffffffffffffffffffffffffffffffffffffff16021790555060808201518160040160006101000a81548173ffffffffffffffffffffffffffffffffffffffff021916908373ffffffffffffffffffffffffffffffffffffffff16021790555060a0820151816005015560c0820151816006015560e082015181600701555050600a60076000836040015181526020019081526020016000208054905011156136705760005b600a81101561358a5760076000836040015181526020019081526020016000206001826133c891906141fa565b815481106133ff577f4e487b7100000000000000000000000000000000000000000000000000000000600052603260045260246000fd5b90600052602060002090600802016007600084604001518152602001908152602001600020828154811061345c577f4e487b7100000000000000000000000000000000000000000000000000000000600052603260045260246000fd5b90600052602060002090600802016000820154816000015560018201548160010155600282015481600201556003820160009054906101000a900473ffffffffffffffffffffffffffffffffffffffff168160030160006101000a81548173ffffffffffffffffffffffffffffffffffffffff021916908373ffffffffffffffffffffffffffffffffffffffff1602179055506004820160009054906101000a900473ffffffffffffffffffffffffffffffffffffffff168160040160006101000a81548173ffffffffffffffffffffffffffffffffffffffff021916908373ffffffffffffffffffffffffffffffffffffffff16021790555060058201548160050155600682015481600601556007820154816007015590505080806135829061437f565b91505061339b565b5060076000826040015181526020019081526020016000208054806135d8577f4e487b7100000000000000000000000000000000000000000000000000000000600052603160045260246000fd5b6001900381819060005260206000209060080201600080820160009055600182016000905560028201600090556003820160006101000a81549073ffffffffffffffffffffffffffffffffffffffff02191690556004820160006101000a81549073ffffffffffffffffffffffffffffffffffffffff0219169055600582016000905560068201600090556007820160009055505090555b806080015173ffffffffffffffffffffffffffffffffffffffff16816060015173ffffffffffffffffffffffffffffffffffffffff1682604001517fdb0c486e680ba8026643e6a85f8d157b5e7bcd4b32b54d564542570a9eb20416846000015185602001518660a001518760c001518860e001516040516136f69594939291906140eb565b60405180910390a450565b604051806040016040528060008019168152602001600073ffffffffffffffffffffffffffffffffffffffff1681525090565b60008135905061374381614559565b92915050565b60008151905061375881614570565b92915050565b60008135905061376d81614587565b92915050565b6000813590506137828161459e565b92915050565b600081359050613797816145ae565b92915050565b600080604083850312156137b057600080fd5b60006137be85828601613734565b92505060206137cf8582860161375e565b9150509250929050565b6000602082840312156137eb57600080fd5b60006137f984828501613749565b91505092915050565b60006020828403121561381457600080fd5b60006138228482850161375e565b91505092915050565b6000806040838503121561383e57600080fd5b600061384c8582860161375e565b925050602061385d85828601613734565b9150509250929050565b6000806040838503121561387a57600080fd5b60006138888582860161375e565b925050602061389985828601613773565b9150509250929050565b6000806000606084860312156138b857600080fd5b60006138c68682870161375e565b93505060206138d786828701613788565b92505060406138e886828701613773565b9150509250925092565b60008060006060848603121561390757600080fd5b60006139158682870161375e565b935050602061392686828701613788565b925050604061393786828701613788565b9150509250925092565b6000806000806080858703121561395757600080fd5b60006139658782880161375e565b945050602061397687828801613788565b935050604061398787828801613788565b925050606061399887828801613773565b91505092959194509250565b6000602082840312156139b657600080fd5b60006139c484828501613788565b91505092915050565b600080604083850312156139e057600080fd5b60006139ee85828601613788565b92505060206139ff8582860161375e565b9150509250929050565b6000613a158383613cbc565b6101008301905092915050565b6000613a2e8383613d5e565b60408301905092915050565b6000613a468383613d8d565b6101008301905092915050565b613a5c816142de565b82525050565b613a6b816142de565b82525050565b6000613a7c8261416e565b613a8681856141b6565b9350613a918361413e565b8060005b83811015613ac2578151613aa98882613a09565b9750613ab48361418f565b925050600181019050613a95565b5085935050505092915050565b6000613ada82614179565b613ae481856141c7565b9350613aef8361414e565b8060005b83811015613b20578151613b078882613a22565b9750613b128361419c565b925050600181019050613af3565b5085935050505092915050565b6000613b3882614184565b613b4281856141d8565b9350613b4d8361415e565b8060005b83811015613b7e578151613b658882613a3a565b9750613b70836141a9565b925050600181019050613b51565b5085935050505092915050565b613b94816142fc565b82525050565b613ba3816142fc565b82525050565b613bb281614343565b82525050565b613bc181614343565b82525050565b6000613bd46017836141e9565b9150613bdf82614426565b602082019050919050565b6000613bf7600f836141e9565b9150613c028261444f565b602082019050919050565b6000613c1a600a836141e9565b9150613c2582614478565b602082019050919050565b6000613c3d6010836141e9565b9150613c48826144a1565b602082019050919050565b6000613c606015836141e9565b9150613c6b826144ca565b602082019050919050565b6000613c836013836141e9565b9150613c8e826144f3565b602082019050919050565b6000613ca66019836141e9565b9150613cb18261451c565b602082019050919050565b61010082016000820151613cd36000850182613e2f565b506020820151613ce66020850182613a53565b506040820151613cf96040850182613ba9565b506060820151613d0c6060850182613b8b565b506080820151613d1f6080850182613e2f565b5060a0820151613d3260a0850182613e2f565b5060c0820151613d4560c0850182613e2f565b5060e0820151613d5860e0850182613e2f565b50505050565b604082016000820151613d746000850182613b8b565b506020820151613d876020850182613a53565b50505050565b61010082016000820151613da46000850182613e2f565b506020820151613db76020850182613e2f565b506040820151613dca6040850182613b8b565b506060820151613ddd6060850182613a53565b506080820151613df06080850182613a53565b5060a0820151613e0360a0850182613e2f565b5060c0820151613e1660c0850182613e2f565b5060e0820151613e2960e0850182613e2f565b50505050565b613e3881614339565b82525050565b613e4781614339565b82525050565b6000602082019050613e626000830184613a62565b92915050565b6000606082019050613e7d6000830186613a62565b613e8a6020830185613a62565b613e976040830184613e3e565b949350505050565b6000604082019050613eb46000830185613a62565b613ec16020830184613e3e565b9392505050565b60006020820190508181036000830152613ee28184613a71565b905092915050565b60006020820190508181036000830152613f048184613acf565b905092915050565b60006020820190508181036000830152613f268184613b2d565b905092915050565b6000602082019050613f436000830184613b9a565b92915050565b6000604082019050613f5e6000830185613b9a565b613f6b6020830184613a62565b9392505050565b60006020820190508181036000830152613f8b81613bc7565b9050919050565b60006020820190508181036000830152613fab81613bea565b9050919050565b60006020820190508181036000830152613fcb81613c0d565b9050919050565b60006020820190508181036000830152613feb81613c30565b9050919050565b6000602082019050818103600083015261400b81613c53565b9050919050565b6000602082019050818103600083015261402b81613c76565b9050919050565b6000602082019050818103600083015261404b81613c99565b9050919050565b60006020820190506140676000830184613e3e565b92915050565b600061010082019050614083600083018b613e3e565b614090602083018a613a62565b61409d6040830189613bb8565b6140aa6060830188613b9a565b6140b76080830187613e3e565b6140c460a0830186613e3e565b6140d160c0830185613e3e565b6140de60e0830184613e3e565b9998505050505050505050565b600060a0820190506141006000830188613e3e565b61410d6020830187613e3e565b61411a6040830186613e3e565b6141276060830185613e3e565b6141346080830184613e3e565b9695505050505050565b6000819050602082019050919050565b6000819050602082019050919050565b6000819050602082019050919050565b600081519050919050565b600081519050919050565b600081519050919050565b6000602082019050919050565b6000602082019050919050565b6000602082019050919050565b600082825260208201905092915050565b600082825260208201905092915050565b600082825260208201905092915050565b600082825260208201905092915050565b600061420582614339565b915061421083614339565b9250827fffffffffffffffffffffffffffffffffffffffffffffffffffffffffffffffff03821115614245576142446143c8565b5b828201905092915050565b600061425b82614339565b915061426683614339565b9250817fffffffffffffffffffffffffffffffffffffffffffffffffffffffffffffffff048311821515161561429f5761429e6143c8565b5b828202905092915050565b60006142b582614339565b91506142c083614339565b9250828210156142d3576142d26143c8565b5b828203905092915050565b60006142e982614319565b9050919050565b60008115159050919050565b6000819050919050565b600081905061431482614545565b919050565b600073ffffffffffffffffffffffffffffffffffffffff82169050919050565b6000819050919050565b600061434e82614306565b9050919050565b600061436082614339565b91506000821415614374576143736143c8565b5b600182039050919050565b600061438a82614339565b91507fffffffffffffffffffffffffffffffffffffffffffffffffffffffffffffffff8214156143bd576143bc6143c8565b5b600182019050919050565b7f4e487b7100000000000000000000000000000000000000000000000000000000600052601160045260246000fd5b7f4e487b7100000000000000000000000000000000000000000000000000000000600052602160045260246000fd5b7f616d6f756e74206d757374206265206e6f6e2d7a65726f000000000000000000600082015250565b7f62616c616e636520746f6f206c6f770000000000000000000000000000000000600082015250565b7f6f6e6c792061646d696e00000000000000000000000000000000000000000000600082015250565b7f63616e6e6f742074726164652044414900000000000000000000000000000000600082015250565b7f746f6b656e2062616c616e636520746f6f206c6f770000000000000000000000600082015250565b7f6461692062616c616e636520746f6f206c6f7700000000000000000000000000600082015250565b7f7468697320746f6b656e20646f6573206e6f7420657869737400000000000000600082015250565b60028110614556576145556143f7565b5b50565b614562816142de565b811461456d57600080fd5b50565b614579816142f0565b811461458457600080fd5b50565b614590816142fc565b811461459b57600080fd5b50565b600281106145ab57600080fd5b50565b6145b781614339565b81146145c257600080fd5b5056fea264697066735822122086b3e9b81ad8ebe998fff8fdc875347ee70ffd70ba2e9310e77b6eeb83ef5eaa64736f6c63430008040033",
  "linkReferences": {},
  "deployedLinkReferences": {}
}