{
  "_format": "hh-sol-artifact-1",
  "contractName": "Dex",
  "sourceName": "contracts/Dex.sol",
  "abi": [
    {
      "inputs": [],
      "stateMutability": "nonpayable",
      "type": "constructor"
    },
    {
      "anonymous": false,
      "inputs": [
        {
          "indexed": false,
          "internalType": "uint256",
          "name": "tradeId",
          "type": "uint256"
        },
        {
          "indexed": false,
          "internalType": "uint256",
          "name": "orderId",
          "type": "uint256"
        },
        {
          "indexed": true,
          "internalType": "bytes32",
          "name": "ticker",
          "type": "bytes32"
        },
        {
          "indexed": true,
          "internalType": "address",
          "name": "trader1",
          "type": "address"
        },
        {
          "indexed": true,
          "internalType": "address",
          "name": "trader2",
          "type": "address"
        },
        {
          "indexed": false,
          "internalType": "uint256",
          "name": "amount",
          "type": "uint256"
        },
        {
          "indexed": false,
          "internalType": "uint256",
          "name": "price",
          "type": "uint256"
        },
        {
          "indexed": false,
          "internalType": "uint256",
          "name": "date",
          "type": "uint256"
        }
      ],
      "name": "NewTrade",
      "type": "event"
    },
    {
      "inputs": [
        {
          "internalType": "bytes32",
          "name": "ticker",
          "type": "bytes32"
        },
        {
          "internalType": "address",
          "name": "tokenAddress",
          "type": "address"
        }
      ],
      "name": "addToken",
      "outputs": [],
      "stateMutability": "nonpayable",
      "type": "function"
    },
    {
      "inputs": [],
      "name": "admin",
      "outputs": [
        {
          "internalType": "address",
          "name": "",
          "type": "address"
        }
      ],
      "stateMutability": "view",
      "type": "function"
    },
    {
      "inputs": [
        {
          "internalType": "bytes32",
          "name": "ticker",
          "type": "bytes32"
        },
        {
          "internalType": "uint256",
          "name": "amount",
          "type": "uint256"
        },
        {
          "internalType": "uint256",
          "name": "price",
          "type": "uint256"
        },
        {
          "internalType": "enum Dex.Side",
          "name": "side",
          "type": "uint8"
        }
      ],
      "name": "createLimitOrder",
      "outputs": [],
      "stateMutability": "nonpayable",
      "type": "function"
    },
    {
      "inputs": [
        {
          "internalType": "bytes32",
          "name": "ticker",
          "type": "bytes32"
        },
        {
          "internalType": "uint256",
          "name": "amount",
          "type": "uint256"
        },
        {
          "internalType": "enum Dex.Side",
          "name": "side",
          "type": "uint8"
        }
      ],
      "name": "createMarketOrder",
      "outputs": [],
      "stateMutability": "nonpayable",
      "type": "function"
    },
    {
      "inputs": [
        {
          "internalType": "uint256",
          "name": "amount",
          "type": "uint256"
        },
        {
          "internalType": "bytes32",
          "name": "ticker",
          "type": "bytes32"
        }
      ],
      "name": "deposit",
      "outputs": [],
      "stateMutability": "nonpayable",
      "type": "function"
    },
    {
      "inputs": [
        {
          "internalType": "bytes32",
          "name": "ticker",
          "type": "bytes32"
        },
        {
          "internalType": "enum Dex.Side",
          "name": "side",
          "type": "uint8"
        }
      ],
      "name": "getOrders",
      "outputs": [
        {
          "components": [
            {
              "internalType": "uint256",
              "name": "id",
              "type": "uint256"
            },
            {
              "internalType": "address",
              "name": "trader",
              "type": "address"
            },
            {
              "internalType": "enum Dex.Side",
              "name": "side",
              "type": "uint8"
            },
            {
              "internalType": "bytes32",
              "name": "ticker",
              "type": "bytes32"
            },
            {
              "internalType": "uint256",
              "name": "amount",
              "type": "uint256"
            },
            {
              "internalType": "uint256",
              "name": "filled",
              "type": "uint256"
            },
            {
              "internalType": "uint256",
              "name": "price",
              "type": "uint256"
            },
            {
              "internalType": "uint256",
              "name": "date",
              "type": "uint256"
            }
          ],
          "internalType": "struct Dex.Order[]",
          "name": "",
          "type": "tuple[]"
        }
      ],
      "stateMutability": "view",
      "type": "function"
    },
    {
      "inputs": [
        {
          "internalType": "bytes32",
          "name": "ticker",
          "type": "bytes32"
        }
      ],
      "name": "getRecentTrades",
      "outputs": [
        {
          "components": [
            {
              "internalType": "uint256",
              "name": "tradeId",
              "type": "uint256"
            },
            {
              "internalType": "uint256",
              "name": "orderId",
              "type": "uint256"
            },
            {
              "internalType": "bytes32",
              "name": "ticker",
              "type": "bytes32"
            },
            {
              "internalType": "address",
              "name": "trader1",
              "type": "address"
            },
            {
              "internalType": "address",
              "name": "trader2",
              "type": "address"
            },
            {
              "internalType": "uint256",
              "name": "amount",
              "type": "uint256"
            },
            {
              "internalType": "uint256",
              "name": "price",
              "type": "uint256"
            },
            {
              "internalType": "uint256",
              "name": "date",
              "type": "uint256"
            }
          ],
          "internalType": "struct Dex.Trade[100]",
          "name": "",
          "type": "tuple[100]"
        }
      ],
      "stateMutability": "view",
      "type": "function"
    },
    {
      "inputs": [],
      "name": "getTokens",
      "outputs": [
        {
          "components": [
            {
              "internalType": "bytes32",
              "name": "ticker",
              "type": "bytes32"
            },
            {
              "internalType": "address",
              "name": "tokenAddress",
              "type": "address"
            }
          ],
          "internalType": "struct Dex.Token[]",
          "name": "",
          "type": "tuple[]"
        }
      ],
      "stateMutability": "view",
      "type": "function"
    },
    {
      "inputs": [],
      "name": "nextOrderId",
      "outputs": [
        {
          "internalType": "uint256",
          "name": "",
          "type": "uint256"
        }
      ],
      "stateMutability": "view",
      "type": "function"
    },
    {
      "inputs": [],
      "name": "nextTradeId",
      "outputs": [
        {
          "internalType": "uint256",
          "name": "",
          "type": "uint256"
        }
      ],
      "stateMutability": "view",
      "type": "function"
    },
    {
      "inputs": [
        {
          "internalType": "bytes32",
          "name": "",
          "type": "bytes32"
        },
        {
          "internalType": "uint256",
          "name": "",
          "type": "uint256"
        },
        {
          "internalType": "uint256",
          "name": "",
          "type": "uint256"
        }
      ],
      "name": "orderBook",
      "outputs": [
        {
          "internalType": "uint256",
          "name": "id",
          "type": "uint256"
        },
        {
          "internalType": "address",
          "name": "trader",
          "type": "address"
        },
        {
          "internalType": "enum Dex.Side",
          "name": "side",
          "type": "uint8"
        },
        {
          "internalType": "bytes32",
          "name": "ticker",
          "type": "bytes32"
        },
        {
          "internalType": "uint256",
          "name": "amount",
          "type": "uint256"
        },
        {
          "internalType": "uint256",
          "name": "filled",
          "type": "uint256"
        },
        {
          "internalType": "uint256",
          "name": "price",
          "type": "uint256"
        },
        {
          "internalType": "uint256",
          "name": "date",
          "type": "uint256"
        }
      ],
      "stateMutability": "view",
      "type": "function"
    },
    {
      "inputs": [
        {
          "internalType": "uint256",
          "name": "",
          "type": "uint256"
        }
      ],
      "name": "tokenList",
      "outputs": [
        {
          "internalType": "bytes32",
          "name": "",
          "type": "bytes32"
        }
      ],
      "stateMutability": "view",
      "type": "function"
    },
    {
      "inputs": [
        {
          "internalType": "bytes32",
          "name": "",
          "type": "bytes32"
        }
      ],
      "name": "tokens",
      "outputs": [
        {
          "internalType": "bytes32",
          "name": "ticker",
          "type": "bytes32"
        },
        {
          "internalType": "address",
          "name": "tokenAddress",
          "type": "address"
        }
      ],
      "stateMutability": "view",
      "type": "function"
    },
    {
      "inputs": [
        {
          "internalType": "address",
          "name": "",
          "type": "address"
        },
        {
          "internalType": "bytes32",
          "name": "",
          "type": "bytes32"
        }
      ],
      "name": "traderBalances",
      "outputs": [
        {
          "internalType": "uint256",
          "name": "",
          "type": "uint256"
        }
      ],
      "stateMutability": "view",
      "type": "function"
    },
    {
      "inputs": [
        {
          "internalType": "uint256",
          "name": "amount",
          "type": "uint256"
        },
        {
          "internalType": "bytes32",
          "name": "ticker",
          "type": "bytes32"
        }
      ],
      "name": "withdraw",
      "outputs": [],
      "stateMutability": "nonpayable",
      "type": "function"
    }
  ],
  "bytecode": "0x608060405234801561001057600080fd5b5033600460006101000a81548173ffffffffffffffffffffffffffffffffffffffff021916908373ffffffffffffffffffffffffffffffffffffffff160217905550614610806100616000396000f3fe608060405234801561001057600080fd5b50600436106100f55760003560e01c8063904194a311610097578063aa6ca80811610066578063aa6ca808146102b2578063c9630cb0146102d0578063d9c0c950146102ec578063f851a44014610308576100f5565b8063904194a3146102195780639776aacf1461024a5780639ead722214610266578063a8d2021a14610296576100f5565b806346e9658b116100d357806346e9658b1461017f57806372ce957e146101af5780637f2c6246146101df578063813ad083146101fb576100f5565b80630bb431b6146100fa5780632a58b3301461013157806342e1ca3c1461014f575b600080fd5b610114600480360381019061010f919061398c565b610326565b6040516101289897969594939291906140b7565b60405180910390f35b6101396103c5565b604051610146919061409c565b60405180910390f35b6101696004803603810190610164919061389c565b6103cb565b6040516101769190613f7c565b60405180910390f35b61019960048036038101906101949190613901565b610519565b6040516101a69190613f38565b60405180910390f35b6101c960048036038101906101c49190613837565b6106ef565b6040516101d6919061409c565b60405180910390f35b6101f960048036038101906101f4919061393d565b610714565b005b610203611daf565b604051610210919061409c565b60405180910390f35b610233600480360381019061022e919061389c565b611db5565b604051610241929190613fb3565b60405180910390f35b610264600480360381019061025f91906138c5565b611df9565b005b610280600480360381019061027b9190613a3e565b611f47565b60405161028d9190613f98565b60405180910390f35b6102b060048036038101906102ab9190613a67565b611f6b565b005b6102ba61221c565b6040516102c79190613f5a565b60405180910390f35b6102ea60048036038101906102e59190613a67565b61240d565b005b610306600480360381019061030191906139db565b61262d565b005b6103106131f2565b60405161031d9190613ebd565b60405180910390f35b6003602052826000526040600020602052816000526040600020818154811061034e57600080fd5b906000526020600020906007020160009250925050508060000154908060010160009054906101000a900473ffffffffffffffffffffffffffffffffffffffff16908060010160149054906101000a900460ff16908060020154908060030154908060040154908060050154908060060154905088565b60055481565b6103d36136f9565b60076000838152602001908152602001600020606480602002604051908101604052809291906000905b8282101561050e57838260080201604051806101000160405290816000820154815260200160018201548152602001600282015481526020016003820160009054906101000a900473ffffffffffffffffffffffffffffffffffffffff1673ffffffffffffffffffffffffffffffffffffffff1673ffffffffffffffffffffffffffffffffffffffff1681526020016004820160009054906101000a900473ffffffffffffffffffffffffffffffffffffffff1673ffffffffffffffffffffffffffffffffffffffff1673ffffffffffffffffffffffffffffffffffffffff1681526020016005820154815260200160068201548152602001600782015481525050815260200190600101906103fd565b505050509050919050565b6060600360008481526020019081526020016000206000836001811115610569577f4e487b7100000000000000000000000000000000000000000000000000000000600052602160045260246000fd5b8152602001908152602001600020805480602002602001604051908101604052809291908181526020016000905b828210156106e3578382906000526020600020906007020160405180610100016040529081600082015481526020016001820160009054906101000a900473ffffffffffffffffffffffffffffffffffffffff1673ffffffffffffffffffffffffffffffffffffffff1673ffffffffffffffffffffffffffffffffffffffff1681526020016001820160149054906101000a900460ff166001811115610666577f4e487b7100000000000000000000000000000000000000000000000000000000600052602160045260246000fd5b600181111561069e577f4e487b7100000000000000000000000000000000000000000000000000000000600052602160045260246000fd5b81526020016002820154815260200160038201548152602001600482015481526020016005820154815260200160068201548152505081526020019060010190610597565b50505050905092915050565b6002602052816000526040600020602052806000526040600020600091509150505481565b82600073ffffffffffffffffffffffffffffffffffffffff1660008083815260200190815260200160002060010160009054906101000a900473ffffffffffffffffffffffffffffffffffffffff1673ffffffffffffffffffffffffffffffffffffffff1614156107ba576040517f08c379a00000000000000000000000000000000000000000000000000000000081526004016107b19061407c565b60405180910390fd5b837f444149000000000000000000000000000000000000000000000000000000000081141561081e576040517f08c379a00000000000000000000000000000000000000000000000000000000081526004016108159061401c565b60405180910390fd5b600180811115610857577f4e487b7100000000000000000000000000000000000000000000000000000000600052602160045260246000fd5b836001811115610890577f4e487b7100000000000000000000000000000000000000000000000000000000600052602160045260246000fd5b141561092a5783600260003373ffffffffffffffffffffffffffffffffffffffff1673ffffffffffffffffffffffffffffffffffffffff1681526020019081526020016000206000878152602001908152602001600020541015610929576040517f08c379a00000000000000000000000000000000000000000000000000000000081526004016109209061403c565b60405180910390fd5b5b600060036000878152602001908152602001600020600080600181111561097a577f4e487b7100000000000000000000000000000000000000000000000000000000600052602160045260246000fd5b8660018111156109b3577f4e487b7100000000000000000000000000000000000000000000000000000000600052602160045260246000fd5b146109bf5760006109c2565b60015b60018111156109fa577f4e487b7100000000000000000000000000000000000000000000000000000000600052602160045260246000fd5b815260200190815260200160002090506000808690505b828054905082108015610a245750600081115b15611a52576000838381548110610a64577f4e487b7100000000000000000000000000000000000000000000000000000000600052603260045260246000fd5b906000526020600020906007020160040154848481548110610aaf577f4e487b7100000000000000000000000000000000000000000000000000000000600052603260045260246000fd5b906000526020600020906007020160030154610acb91906142e8565b90506000818311610adc5782610ade565b815b90508083610aec91906142e8565b925080858581548110610b28577f4e487b7100000000000000000000000000000000000000000000000000000000600052603260045260246000fd5b906000526020600020906007020160040154610b449190614238565b858581548110610b7d577f4e487b7100000000000000000000000000000000000000000000000000000000600052603260045260246000fd5b90600052602060002090600702016004018190555060006040518061010001604052806006548152602001878781548110610be1577f4e487b7100000000000000000000000000000000000000000000000000000000600052603260045260246000fd5b90600052602060002090600702016000015481526020018c8152602001878781548110610c37577f4e487b7100000000000000000000000000000000000000000000000000000000600052603260045260246000fd5b906000526020600020906007020160010160009054906101000a900473ffffffffffffffffffffffffffffffffffffffff1673ffffffffffffffffffffffffffffffffffffffff1681526020013373ffffffffffffffffffffffffffffffffffffffff168152602001838152602001878781548110610cdf577f4e487b7100000000000000000000000000000000000000000000000000000000600052603260045260246000fd5b9060005260206000209060070201600501548152602001428152509050610d0581613218565b600180811115610d3e577f4e487b7100000000000000000000000000000000000000000000000000000000600052602160045260246000fd5b896001811115610d77577f4e487b7100000000000000000000000000000000000000000000000000000000600052602160045260246000fd5b14156113105781600260003373ffffffffffffffffffffffffffffffffffffffff1673ffffffffffffffffffffffffffffffffffffffff16815260200190815260200160002060008d815260200190815260200160002054610dd991906142e8565b600260003373ffffffffffffffffffffffffffffffffffffffff1673ffffffffffffffffffffffffffffffffffffffff16815260200190815260200160002060008d815260200190815260200160002081905550858581548110610e66577f4e487b7100000000000000000000000000000000000000000000000000000000600052603260045260246000fd5b90600052602060002090600702016005015482610e83919061428e565b600260003373ffffffffffffffffffffffffffffffffffffffff1673ffffffffffffffffffffffffffffffffffffffff16815260200190815260200160002060007f4441490000000000000000000000000000000000000000000000000000000000815260200190815260200160002054610efe9190614238565b600260003373ffffffffffffffffffffffffffffffffffffffff1673ffffffffffffffffffffffffffffffffffffffff16815260200190815260200160002060007f44414900000000000000000000000000000000000000000000000000000000008152602001908152602001600020819055508160026000888881548110610fb0577f4e487b7100000000000000000000000000000000000000000000000000000000600052603260045260246000fd5b906000526020600020906007020160010160009054906101000a900473ffffffffffffffffffffffffffffffffffffffff1673ffffffffffffffffffffffffffffffffffffffff1673ffffffffffffffffffffffffffffffffffffffff16815260200190815260200160002060008d8152602001908152602001600020546110389190614238565b60026000888881548110611075577f4e487b7100000000000000000000000000000000000000000000000000000000600052603260045260246000fd5b906000526020600020906007020160010160009054906101000a900473ffffffffffffffffffffffffffffffffffffffff1673ffffffffffffffffffffffffffffffffffffffff1673ffffffffffffffffffffffffffffffffffffffff16815260200190815260200160002060008d81526020019081526020016000208190555085858154811061112f577f4e487b7100000000000000000000000000000000000000000000000000000000600052603260045260246000fd5b9060005260206000209060070201600501548261114c919061428e565b60026000888881548110611189577f4e487b7100000000000000000000000000000000000000000000000000000000600052603260045260246000fd5b906000526020600020906007020160010160009054906101000a900473ffffffffffffffffffffffffffffffffffffffff1673ffffffffffffffffffffffffffffffffffffffff1673ffffffffffffffffffffffffffffffffffffffff16815260200190815260200160002060007f444149000000000000000000000000000000000000000000000000000000000081526020019081526020016000205461123191906142e8565b6002600088888154811061126e577f4e487b7100000000000000000000000000000000000000000000000000000000600052603260045260246000fd5b906000526020600020906007020160010160009054906101000a900473ffffffffffffffffffffffffffffffffffffffff1673ffffffffffffffffffffffffffffffffffffffff1673ffffffffffffffffffffffffffffffffffffffff16815260200190815260200160002060007f44414900000000000000000000000000000000000000000000000000000000008152602001908152602001600020819055505b6000600181111561134a577f4e487b7100000000000000000000000000000000000000000000000000000000600052602160045260246000fd5b896001811115611383577f4e487b7100000000000000000000000000000000000000000000000000000000600052602160045260246000fd5b1415611a24578585815481106113c2577f4e487b7100000000000000000000000000000000000000000000000000000000600052603260045260246000fd5b906000526020600020906007020160050154826113df919061428e565b600260003373ffffffffffffffffffffffffffffffffffffffff1673ffffffffffffffffffffffffffffffffffffffff16815260200190815260200160002060007f44414900000000000000000000000000000000000000000000000000000000008152602001908152602001600020541015611491576040517f08c379a00000000000000000000000000000000000000000000000000000000081526004016114889061405c565b60405180910390fd5b81600260003373ffffffffffffffffffffffffffffffffffffffff1673ffffffffffffffffffffffffffffffffffffffff16815260200190815260200160002060008d8152602001908152602001600020546114ed9190614238565b600260003373ffffffffffffffffffffffffffffffffffffffff1673ffffffffffffffffffffffffffffffffffffffff16815260200190815260200160002060008d81526020019081526020016000208190555085858154811061157a577f4e487b7100000000000000000000000000000000000000000000000000000000600052603260045260246000fd5b90600052602060002090600702016005015482611597919061428e565b600260003373ffffffffffffffffffffffffffffffffffffffff1673ffffffffffffffffffffffffffffffffffffffff16815260200190815260200160002060007f444149000000000000000000000000000000000000000000000000000000000081526020019081526020016000205461161291906142e8565b600260003373ffffffffffffffffffffffffffffffffffffffff1673ffffffffffffffffffffffffffffffffffffffff16815260200190815260200160002060007f444149000000000000000000000000000000000000000000000000000000000081526020019081526020016000208190555081600260008888815481106116c4577f4e487b7100000000000000000000000000000000000000000000000000000000600052603260045260246000fd5b906000526020600020906007020160010160009054906101000a900473ffffffffffffffffffffffffffffffffffffffff1673ffffffffffffffffffffffffffffffffffffffff1673ffffffffffffffffffffffffffffffffffffffff16815260200190815260200160002060008d81526020019081526020016000205461174c91906142e8565b60026000888881548110611789577f4e487b7100000000000000000000000000000000000000000000000000000000600052603260045260246000fd5b906000526020600020906007020160010160009054906101000a900473ffffffffffffffffffffffffffffffffffffffff1673ffffffffffffffffffffffffffffffffffffffff1673ffffffffffffffffffffffffffffffffffffffff16815260200190815260200160002060008d815260200190815260200160002081905550858581548110611843577f4e487b7100000000000000000000000000000000000000000000000000000000600052603260045260246000fd5b90600052602060002090600702016005015482611860919061428e565b6002600088888154811061189d577f4e487b7100000000000000000000000000000000000000000000000000000000600052603260045260246000fd5b906000526020600020906007020160010160009054906101000a900473ffffffffffffffffffffffffffffffffffffffff1673ffffffffffffffffffffffffffffffffffffffff1673ffffffffffffffffffffffffffffffffffffffff16815260200190815260200160002060007f44414900000000000000000000000000000000000000000000000000000000008152602001908152602001600020546119459190614238565b60026000888881548110611982577f4e487b7100000000000000000000000000000000000000000000000000000000600052603260045260246000fd5b906000526020600020906007020160010160009054906101000a900473ffffffffffffffffffffffffffffffffffffffff1673ffffffffffffffffffffffffffffffffffffffff1673ffffffffffffffffffffffffffffffffffffffff16815260200190815260200160002060007f44414900000000000000000000000000000000000000000000000000000000008152602001908152602001600020819055505b60066000815480929190611a37906143bd565b91905055508480611a47906143bd565b955050505050610a11565b600091505b828054905082108015611afd5750828281548110611a9e577f4e487b7100000000000000000000000000000000000000000000000000000000600052603260045260246000fd5b906000526020600020906007020160030154838381548110611ae9577f4e487b7100000000000000000000000000000000000000000000000000000000600052603260045260246000fd5b906000526020600020906007020160040154145b15611da55760008290505b60018480549050611b1991906142e8565b811015611cd65783600182611b2e9190614238565b81548110611b65577f4e487b7100000000000000000000000000000000000000000000000000000000600052603260045260246000fd5b9060005260206000209060070201848281548110611bac577f4e487b7100000000000000000000000000000000000000000000000000000000600052603260045260246000fd5b9060005260206000209060070201600082015481600001556001820160009054906101000a900473ffffffffffffffffffffffffffffffffffffffff168160010160006101000a81548173ffffffffffffffffffffffffffffffffffffffff021916908373ffffffffffffffffffffffffffffffffffffffff1602179055506001820160149054906101000a900460ff168160010160146101000a81548160ff02191690836001811115611c89577f4e487b7100000000000000000000000000000000000000000000000000000000600052602160045260246000fd5b021790555060028201548160020155600382015481600301556004820154816004015560058201548160050155600682015481600601559050508080611cce906143bd565b915050611b08565b5082805480611d0e577f4e487b7100000000000000000000000000000000000000000000000000000000600052603160045260246000fd5b60019003818190600052602060002090600702016000808201600090556001820160006101000a81549073ffffffffffffffffffffffffffffffffffffffff02191690556001820160146101000a81549060ff021916905560028201600090556003820160009055600482016000905560058201600090556006820160009055505090558180611d9d906143bd565b925050611a57565b5050505050505050565b60065481565b60006020528060005260406000206000915090508060000154908060010160009054906101000a900473ffffffffffffffffffffffffffffffffffffffff16905082565b600460009054906101000a900473ffffffffffffffffffffffffffffffffffffffff1673ffffffffffffffffffffffffffffffffffffffff163373ffffffffffffffffffffffffffffffffffffffff1614611e89576040517f08c379a0000000000000000000000000000000000000000000000000000000008152600401611e8090613ffc565b60405180910390fd5b60405180604001604052808381526020018273ffffffffffffffffffffffffffffffffffffffff168152506000808481526020019081526020016000206000820151816000015560208201518160010160006101000a81548173ffffffffffffffffffffffffffffffffffffffff021916908373ffffffffffffffffffffffffffffffffffffffff16021790555090505060018290806001815401808255809150506001900390600052602060002001600090919091909150555050565b60018181548110611f5757600080fd5b906000526020600020016000915090505481565b80600073ffffffffffffffffffffffffffffffffffffffff1660008083815260200190815260200160002060010160009054906101000a900473ffffffffffffffffffffffffffffffffffffffff1673ffffffffffffffffffffffffffffffffffffffff161415612011576040517f08c379a00000000000000000000000000000000000000000000000000000000081526004016120089061407c565b60405180910390fd5b82600260003373ffffffffffffffffffffffffffffffffffffffff1673ffffffffffffffffffffffffffffffffffffffff16815260200190815260200160002060008481526020019081526020016000205410156120a4576040517f08c379a000000000000000000000000000000000000000000000000000000000815260040161209b90613fdc565b60405180910390fd5b82600260003373ffffffffffffffffffffffffffffffffffffffff1673ffffffffffffffffffffffffffffffffffffffff16815260200190815260200160002060008481526020019081526020016000205461210091906142e8565b600260003373ffffffffffffffffffffffffffffffffffffffff1673ffffffffffffffffffffffffffffffffffffffff16815260200190815260200160002060008481526020019081526020016000208190555060008083815260200190815260200160002060010160009054906101000a900473ffffffffffffffffffffffffffffffffffffffff1673ffffffffffffffffffffffffffffffffffffffff1663a9059cbb33856040518363ffffffff1660e01b81526004016121c4929190613f0f565b602060405180830381600087803b1580156121de57600080fd5b505af11580156121f2573d6000803e3d6000fd5b505050506040513d601f19601f820116820180604052508101906122169190613873565b50505050565b6060600060018054905067ffffffffffffffff811115612265577f4e487b7100000000000000000000000000000000000000000000000000000000600052604160045260246000fd5b60405190808252806020026020018201604052801561229e57816020015b61228b613727565b8152602001906001900390816122835790505b50905060005b600180549050811015612405576040518060400160405280600080600185815481106122f9577f4e487b7100000000000000000000000000000000000000000000000000000000600052603260045260246000fd5b9060005260206000200154815260200190815260200160002060000154815260200160008060018581548110612358577f4e487b7100000000000000000000000000000000000000000000000000000000600052603260045260246000fd5b9060005260206000200154815260200190815260200160002060010160009054906101000a900473ffffffffffffffffffffffffffffffffffffffff1673ffffffffffffffffffffffffffffffffffffffff168152508282815181106123e7577f4e487b7100000000000000000000000000000000000000000000000000000000600052603260045260246000fd5b602002602001018190525080806123fd906143bd565b9150506122a4565b508091505090565b80600073ffffffffffffffffffffffffffffffffffffffff1660008083815260200190815260200160002060010160009054906101000a900473ffffffffffffffffffffffffffffffffffffffff1673ffffffffffffffffffffffffffffffffffffffff1614156124b3576040517f08c379a00000000000000000000000000000000000000000000000000000000081526004016124aa9061407c565b60405180910390fd5b60008083815260200190815260200160002060010160009054906101000a900473ffffffffffffffffffffffffffffffffffffffff1673ffffffffffffffffffffffffffffffffffffffff166323b872dd3330866040518463ffffffff1660e01b815260040161252593929190613ed8565b602060405180830381600087803b15801561253f57600080fd5b505af1158015612553573d6000803e3d6000fd5b505050506040513d601f19601f820116820180604052508101906125779190613873565b5082600260003373ffffffffffffffffffffffffffffffffffffffff1673ffffffffffffffffffffffffffffffffffffffff1681526020019081526020016000206000848152602001908152602001600020546125d49190614238565b600260003373ffffffffffffffffffffffffffffffffffffffff1673ffffffffffffffffffffffffffffffffffffffff168152602001908152602001600020600084815260200190815260200160002081905550505050565b83600073ffffffffffffffffffffffffffffffffffffffff1660008083815260200190815260200160002060010160009054906101000a900473ffffffffffffffffffffffffffffffffffffffff1673ffffffffffffffffffffffffffffffffffffffff1614156126d3576040517f08c379a00000000000000000000000000000000000000000000000000000000081526004016126ca9061407c565b60405180910390fd5b847f4441490000000000000000000000000000000000000000000000000000000000811415612737576040517f08c379a000000000000000000000000000000000000000000000000000000000815260040161272e9061401c565b60405180910390fd5b600180811115612770577f4e487b7100000000000000000000000000000000000000000000000000000000600052602160045260246000fd5b8360018111156127a9577f4e487b7100000000000000000000000000000000000000000000000000000000600052602160045260246000fd5b14156128475784600260003373ffffffffffffffffffffffffffffffffffffffff1673ffffffffffffffffffffffffffffffffffffffff1681526020019081526020016000206000888152602001908152602001600020541015612842576040517f08c379a00000000000000000000000000000000000000000000000000000000081526004016128399061403c565b60405180910390fd5b612906565b8385612853919061428e565b600260003373ffffffffffffffffffffffffffffffffffffffff1673ffffffffffffffffffffffffffffffffffffffff16815260200190815260200160002060007f44414900000000000000000000000000000000000000000000000000000000008152602001908152602001600020541015612905576040517f08c379a00000000000000000000000000000000000000000000000000000000081526004016128fc9061405c565b60405180910390fd5b5b6000600360008881526020019081526020016000206000856001811115612956577f4e487b7100000000000000000000000000000000000000000000000000000000600052602160045260246000fd5b815260200190815260200160002090508060405180610100016040528060055481526020013373ffffffffffffffffffffffffffffffffffffffff1681526020018660018111156129d0577f4e487b7100000000000000000000000000000000000000000000000000000000600052602160045260246000fd5b8152602001898152602001888152602001600081526020018781526020014281525090806001815401808255809150506001900390600052602060002090600702016000909190919091506000820151816000015560208201518160010160006101000a81548173ffffffffffffffffffffffffffffffffffffffff021916908373ffffffffffffffffffffffffffffffffffffffff16021790555060408201518160010160146101000a81548160ff02191690836001811115612abd577f4e487b7100000000000000000000000000000000000000000000000000000000600052602160045260246000fd5b0217905550606082015181600201556080820151816003015560a0820151816004015560c0820151816005015560e082015181600601555050600080828054905011612b0a576000612b1c565b60018280549050612b1b91906142e8565b5b90505b60008111156131d05760006001811115612b62577f4e487b7100000000000000000000000000000000000000000000000000000000600052602160045260246000fd5b856001811115612b9b577f4e487b7100000000000000000000000000000000000000000000000000000000600052602160045260246000fd5b148015612c475750818181548110612bdc577f4e487b7100000000000000000000000000000000000000000000000000000000600052603260045260246000fd5b90600052602060002090600702016005015482600183612bfc91906142e8565b81548110612c33577f4e487b7100000000000000000000000000000000000000000000000000000000600052603260045260246000fd5b906000526020600020906007020160050154115b15612c51576131d0565b600180811115612c8a577f4e487b7100000000000000000000000000000000000000000000000000000000600052602160045260246000fd5b856001811115612cc3577f4e487b7100000000000000000000000000000000000000000000000000000000600052602160045260246000fd5b148015612d6f5750818181548110612d04577f4e487b7100000000000000000000000000000000000000000000000000000000600052603260045260246000fd5b90600052602060002090600702016005015482600183612d2491906142e8565b81548110612d5b577f4e487b7100000000000000000000000000000000000000000000000000000000600052603260045260246000fd5b906000526020600020906007020160050154105b15612d79576131d0565b600082600183612d8991906142e8565b81548110612dc0577f4e487b7100000000000000000000000000000000000000000000000000000000600052603260045260246000fd5b906000526020600020906007020160405180610100016040529081600082015481526020016001820160009054906101000a900473ffffffffffffffffffffffffffffffffffffffff1673ffffffffffffffffffffffffffffffffffffffff1673ffffffffffffffffffffffffffffffffffffffff1681526020016001820160149054906101000a900460ff166001811115612e85577f4e487b7100000000000000000000000000000000000000000000000000000000600052602160045260246000fd5b6001811115612ebd577f4e487b7100000000000000000000000000000000000000000000000000000000600052602160045260246000fd5b8152602001600282015481526020016003820154815260200160048201548152602001600582015481526020016006820154815250509050828281548110612f2e577f4e487b7100000000000000000000000000000000000000000000000000000000600052603260045260246000fd5b906000526020600020906007020183600184612f4a91906142e8565b81548110612f81577f4e487b7100000000000000000000000000000000000000000000000000000000600052603260045260246000fd5b9060005260206000209060070201600082015481600001556001820160009054906101000a900473ffffffffffffffffffffffffffffffffffffffff168160010160006101000a81548173ffffffffffffffffffffffffffffffffffffffff021916908373ffffffffffffffffffffffffffffffffffffffff1602179055506001820160149054906101000a900460ff168160010160146101000a81548160ff0219169083600181111561305e577f4e487b7100000000000000000000000000000000000000000000000000000000600052602160045260246000fd5b02179055506002820154816002015560038201548160030155600482015481600401556005820154816005015560068201548160060155905050808383815481106130d2577f4e487b7100000000000000000000000000000000000000000000000000000000600052603260045260246000fd5b90600052602060002090600702016000820151816000015560208201518160010160006101000a81548173ffffffffffffffffffffffffffffffffffffffff021916908373ffffffffffffffffffffffffffffffffffffffff16021790555060408201518160010160146101000a81548160ff02191690836001811115613182577f4e487b7100000000000000000000000000000000000000000000000000000000600052602160045260246000fd5b0217905550606082015181600201556080820151816003015560a0820151816004015560c0820151816005015560e0820151816006015590505081806131c790614393565b92505050612b1f565b600560008154809291906131e3906143bd565b91905055505050505050505050565b600460009054906101000a900473ffffffffffffffffffffffffffffffffffffffff1681565b6001606461322691906142e8565b60065410613544576000600190505b6064811015613410576007600083604001518152602001908152602001600020816064811061328d577f4e487b7100000000000000000000000000000000000000000000000000000000600052603260045260246000fd5b6008020160076000846040015181526020019081526020016000206001836132b591906142e8565b606481106132ec577f4e487b7100000000000000000000000000000000000000000000000000000000600052603260045260246000fd5b600802016000820154816000015560018201548160010155600282015481600201556003820160009054906101000a900473ffffffffffffffffffffffffffffffffffffffff168160030160006101000a81548173ffffffffffffffffffffffffffffffffffffffff021916908373ffffffffffffffffffffffffffffffffffffffff1602179055506004820160009054906101000a900473ffffffffffffffffffffffffffffffffffffffff168160040160006101000a81548173ffffffffffffffffffffffffffffffffffffffff021916908373ffffffffffffffffffffffffffffffffffffffff1602179055506005820154816005015560068201548160060155600782015481600701559050508080613408906143bd565b915050613235565b508060076000836040015181526020019081526020016000206001606461343791906142e8565b6064811061346e577f4e487b7100000000000000000000000000000000000000000000000000000000600052603260045260246000fd5b6008020160008201518160000155602082015181600101556040820151816002015560608201518160030160006101000a81548173ffffffffffffffffffffffffffffffffffffffff021916908373ffffffffffffffffffffffffffffffffffffffff16021790555060808201518160040160006101000a81548173ffffffffffffffffffffffffffffffffffffffff021916908373ffffffffffffffffffffffffffffffffffffffff16021790555060a0820151816005015560c0820151816006015560e08201518160070155905050613668565b80600760008360400151815260200190815260200160002060065460648110613596577f4e487b7100000000000000000000000000000000000000000000000000000000600052603260045260246000fd5b6008020160008201518160000155602082015181600101556040820151816002015560608201518160030160006101000a81548173ffffffffffffffffffffffffffffffffffffffff021916908373ffffffffffffffffffffffffffffffffffffffff16021790555060808201518160040160006101000a81548173ffffffffffffffffffffffffffffffffffffffff021916908373ffffffffffffffffffffffffffffffffffffffff16021790555060a0820151816005015560c0820151816006015560e082015181600701559050505b806080015173ffffffffffffffffffffffffffffffffffffffff16816060015173ffffffffffffffffffffffffffffffffffffffff1682604001517fdb0c486e680ba8026643e6a85f8d157b5e7bcd4b32b54d564542570a9eb20416846000015185602001518660a001518760c001518860e001516040516136ee959493929190614135565b60405180910390a450565b60405180610c8001604052806064905b61371161375a565b8152602001906001900390816137095790505090565b604051806040016040528060008019168152602001600073ffffffffffffffffffffffffffffffffffffffff1681525090565b604051806101000160405280600081526020016000815260200160008019168152602001600073ffffffffffffffffffffffffffffffffffffffff168152602001600073ffffffffffffffffffffffffffffffffffffffff1681526020016000815260200160008152602001600081525090565b6000813590506137dd8161456e565b92915050565b6000815190506137f281614585565b92915050565b6000813590506138078161459c565b92915050565b60008135905061381c816145b3565b92915050565b600081359050613831816145c3565b92915050565b6000806040838503121561384a57600080fd5b6000613858858286016137ce565b9250506020613869858286016137f8565b9150509250929050565b60006020828403121561388557600080fd5b6000613893848285016137e3565b91505092915050565b6000602082840312156138ae57600080fd5b60006138bc848285016137f8565b91505092915050565b600080604083850312156138d857600080fd5b60006138e6858286016137f8565b92505060206138f7858286016137ce565b9150509250929050565b6000806040838503121561391457600080fd5b6000613922858286016137f8565b92505060206139338582860161380d565b9150509250929050565b60008060006060848603121561395257600080fd5b6000613960868287016137f8565b935050602061397186828701613822565b92505060406139828682870161380d565b9150509250925092565b6000806000606084860312156139a157600080fd5b60006139af868287016137f8565b93505060206139c086828701613822565b92505060406139d186828701613822565b9150509250925092565b600080600080608085870312156139f157600080fd5b60006139ff878288016137f8565b9450506020613a1087828801613822565b9350506040613a2187828801613822565b9250506060613a328782880161380d565b91505092959194509250565b600060208284031215613a5057600080fd5b6000613a5e84828501613822565b91505092915050565b60008060408385031215613a7a57600080fd5b6000613a8885828601613822565b9250506020613a99858286016137f8565b9150509250929050565b6000613aaf8383613d2c565b6101008301905092915050565b6000613ac88383613dce565b60408301905092915050565b6000613ae08383613dfd565b6101008301905092915050565b613af68161431c565b82525050565b613b058161431c565b82525050565b6000613b16826141b2565b613b2081856141fa565b9350613b2b83614188565b8060005b83811015613b5c578151613b438882613aa3565b9750613b4e836141d3565b925050600181019050613b2f565b5085935050505092915050565b6000613b74826141bd565b613b7e818561420b565b9350613b8983614198565b8060005b83811015613bba578151613ba18882613abc565b9750613bac836141e0565b925050600181019050613b8d565b5085935050505092915050565b613bd0816141c8565b613bda818461421c565b9250613be5826141a8565b8060005b83811015613c16578151613bfd8782613ad4565b9650613c08836141ed565b925050600181019050613be9565b505050505050565b613c278161433a565b82525050565b613c368161433a565b82525050565b613c4581614381565b82525050565b613c5481614381565b82525050565b6000613c67600f83614227565b9150613c7282614464565b602082019050919050565b6000613c8a600a83614227565b9150613c958261448d565b602082019050919050565b6000613cad601083614227565b9150613cb8826144b6565b602082019050919050565b6000613cd0601583614227565b9150613cdb826144df565b602082019050919050565b6000613cf3601383614227565b9150613cfe82614508565b602082019050919050565b6000613d16601983614227565b9150613d2182614531565b602082019050919050565b61010082016000820151613d436000850182613e9f565b506020820151613d566020850182613aed565b506040820151613d696040850182613c3c565b506060820151613d7c6060850182613c1e565b506080820151613d8f6080850182613e9f565b5060a0820151613da260a0850182613e9f565b5060c0820151613db560c0850182613e9f565b5060e0820151613dc860e0850182613e9f565b50505050565b604082016000820151613de46000850182613c1e565b506020820151613df76020850182613aed565b50505050565b61010082016000820151613e146000850182613e9f565b506020820151613e276020850182613e9f565b506040820151613e3a6040850182613c1e565b506060820151613e4d6060850182613aed565b506080820151613e606080850182613aed565b5060a0820151613e7360a0850182613e9f565b5060c0820151613e8660c0850182613e9f565b5060e0820151613e9960e0850182613e9f565b50505050565b613ea881614377565b82525050565b613eb781614377565b82525050565b6000602082019050613ed26000830184613afc565b92915050565b6000606082019050613eed6000830186613afc565b613efa6020830185613afc565b613f076040830184613eae565b949350505050565b6000604082019050613f246000830185613afc565b613f316020830184613eae565b9392505050565b60006020820190508181036000830152613f528184613b0b565b905092915050565b60006020820190508181036000830152613f748184613b69565b905092915050565b600061640082019050613f926000830184613bc7565b92915050565b6000602082019050613fad6000830184613c2d565b92915050565b6000604082019050613fc86000830185613c2d565b613fd56020830184613afc565b9392505050565b60006020820190508181036000830152613ff581613c5a565b9050919050565b6000602082019050818103600083015261401581613c7d565b9050919050565b6000602082019050818103600083015261403581613ca0565b9050919050565b6000602082019050818103600083015261405581613cc3565b9050919050565b6000602082019050818103600083015261407581613ce6565b9050919050565b6000602082019050818103600083015261409581613d09565b9050919050565b60006020820190506140b16000830184613eae565b92915050565b6000610100820190506140cd600083018b613eae565b6140da602083018a613afc565b6140e76040830189613c4b565b6140f46060830188613c2d565b6141016080830187613eae565b61410e60a0830186613eae565b61411b60c0830185613eae565b61412860e0830184613eae565b9998505050505050505050565b600060a08201905061414a6000830188613eae565b6141576020830187613eae565b6141646040830186613eae565b6141716060830185613eae565b61417e6080830184613eae565b9695505050505050565b6000819050602082019050919050565b6000819050602082019050919050565b6000819050919050565b600081519050919050565b600081519050919050565b600060649050919050565b6000602082019050919050565b6000602082019050919050565b6000602082019050919050565b600082825260208201905092915050565b600082825260208201905092915050565b600081905092915050565b600082825260208201905092915050565b600061424382614377565b915061424e83614377565b9250827fffffffffffffffffffffffffffffffffffffffffffffffffffffffffffffffff0382111561428357614282614406565b5b828201905092915050565b600061429982614377565b91506142a483614377565b9250817fffffffffffffffffffffffffffffffffffffffffffffffffffffffffffffffff04831182151516156142dd576142dc614406565b5b828202905092915050565b60006142f382614377565b91506142fe83614377565b92508282101561431157614310614406565b5b828203905092915050565b600061432782614357565b9050919050565b60008115159050919050565b6000819050919050565b60008190506143528261455a565b919050565b600073ffffffffffffffffffffffffffffffffffffffff82169050919050565b6000819050919050565b600061438c82614344565b9050919050565b600061439e82614377565b915060008214156143b2576143b1614406565b5b600182039050919050565b60006143c882614377565b91507fffffffffffffffffffffffffffffffffffffffffffffffffffffffffffffffff8214156143fb576143fa614406565b5b600182019050919050565b7f4e487b7100000000000000000000000000000000000000000000000000000000600052601160045260246000fd5b7f4e487b7100000000000000000000000000000000000000000000000000000000600052602160045260246000fd5b7f62616c616e636520746f6f206c6f770000000000000000000000000000000000600082015250565b7f6f6e6c792061646d696e00000000000000000000000000000000000000000000600082015250565b7f63616e6e6f742074726164652044414900000000000000000000000000000000600082015250565b7f746f6b656e2062616c616e636520746f6f206c6f770000000000000000000000600082015250565b7f6461692062616c616e636520746f6f206c6f7700000000000000000000000000600082015250565b7f7468697320746f6b656e20646f6573206e6f7420657869737400000000000000600082015250565b6002811061456b5761456a614435565b5b50565b6145778161431c565b811461458257600080fd5b50565b61458e8161432e565b811461459957600080fd5b50565b6145a58161433a565b81146145b057600080fd5b50565b600281106145c057600080fd5b50565b6145cc81614377565b81146145d757600080fd5b5056fea2646970667358221220b65233297cadb7ada09c712e499cbf477adbecc3cd4eeb4052a884f66770aeed64736f6c63430008040033",
  "linkReferences": {},
  "deployedLinkReferences": {}
}